:03000000020003F8
:0C000300787FE4F6D8FD75812902004AE0
:0201E60080FE99
:0201E80080C0D5
:1001D1001208646174653A202030302F30302F309E
:0401E10030202000AA
:1001BB00AD071FED600FE4FEEEC39478748094805E
:0501CB0050EE0E80F370
:0101D000220C
:1000C9004380F0C280D281D2820000000000AF805C
:1000D9000000000000C2820000000000D28200007F
:1000E9000000008580290000000000C28200000095
:0600F9000000EF20E7CA41
:0100FF0022DE
:10013400AE071200C9EE54F04404F580000000003C
:1001440000C2820000000000EEC454F04404F580B4
:0D0154000000000000C28200000000002238
:10016100AE071200C9EE54F04405F580000000000E
:1001710000C2820000000000EEC454F04405F58086
:0D0181000000000000C2820000000000220B
:10008F007580FF758024C2827F281201347F0F1282
:10009F0001BB7F0C1201347F0F1201BB7F061201CF
:1000AF00347F0F1201BB7F011201347F0F1201BB8E
:0A00BF007F021201347F0F0201BB23
:060100008B268A278928E6
:10010600E4FCEF9001E8934DFF120134ECC3941028
:10011600748094805017AB26AA27A9288C827583F1
:0D0126000012018EFF60061201610C80DFE7
:0101330022A9
:10000F000201E6E493A3F8E493A34003F68001F220
:10001F0008DFF48029E493A3F85407240CC8C333F2
:10002F00C4540F4420C8834004F456800146F6DFC1
:10003F00E4800B01020408102040809001D1E47E7F
:10004F00019360BCA3FF543F30E509541FFEE493B6
:10005F00A360010ECF54C025E060A840B8E493A37D
:10006F00FAE493A3F8E493A3C8C582C8CAC583CAA8
:10007F00F0A3C8C582C8CAC583CADFE9DEE780BE60
:0101E5000019
:10018E00BB010CE58229F582E5833AF583E0225026
:10019E0006E92582F8E622BBFE06E92582F8E22270
:0D01AE00E58229F582E5833AF583E493228A
:00000001FF
